:020000040800F2
:1000000000300020950400089304000891040008C3
:100010009104000891040008910400080000000009
:100020000000000000000000000000009304000831
:10003000930400080000000093040008C9010008B0
:10004000910400089104000891040008910400083C
:10005000910400089104000891040008910400082C
:10006000910400089104000891040008910400081C
:10007000910400089104000891040008910400080C
:1000800091040008910400089104000891040008FC
:1000900091040008910400089104000891040008EC
:1000A00091040008910400089104000891040008DC
:1000B00091040008910400089104000891040008CC
:1000C00091040008910400089104000891040008BC
:1000D00091040008910400089104000891040008AC
:1000E000910400089104000891040008910400089C
:1000F000910400089104000891040008910400088C
:10010000910400089104000891040008910400087B
:10011000910400089104000891040008910400086B
:10012000910400089104000891040008910400085B
:10013000910400089104000891040008910400084B
:10014000910400089104000891040008910400083B
:10015000910400089104000891040008910400082B
:10016000910400089104000891040008910400081B
:10017000910400089104000891040008910400080B
:100180009104000808B500F009F800F033F84FF4C6
:10019000FA7000F021F800F03CF8F8E708B50948DB
:1001A00000F0EEF8042000F0C9F94FF6FF1000F05F
:1001B000BDF900F0DFF900F0D5F9BDE8084000F026
:1001C000C9B900BF98050008024A136801331360DB
:1001D000704700BF0C000020054B19684FF47A727D
:1001E0005043B0FBF2F008441A688242FCD37047D7
:1001F0000C00002010B540F2912000F032F94FF4CD
:100200008073002201214FF09040BDE8104000F0C3
:1002100006B94FF480714FF0904000F0F7B800003D
:10022000034A1368C3F38103022BFAD1704700BF5E
:1002300004100240042817D8DFE800F003080D126C
:1002400014000A4B1868C0F340607047074B1868E9
:10025000C0F340407047054B1868C0F3400070473A
:10026000034BF9E7034BF7E700207047001002400B
:10027000201002402410024008B502461046FFF745
:10028000D9FF0028FAD008BD08B502461046FFF78E
:10029000D1FF0028FAD108BD012806D1084A136809
:1002A000C3F38103012BFAD1704738B1022804D17E
:1002B000034A136813F00C0FFBD17047FFF7B0BF70
:1002C00004100240042809D8DFE800F003090E13E7
:1002D00015000A4A136843F0807313607047074A99
:1002E000136843F48033F8E7044A136843F00103CA
:1002F000F3E7034AF9E7034AF7E700BF00100240BB
:100300002010024024100240034A136823F0030324
:1003100018431060704700BF04100240034A13687E
:1003200023F4803343EA0040106070470410024019
:10033000034A136823F4605343EAC02010607047F7
:1003400004100240034A136823F4E06343EA0020E8
:100350001060704704100240034A136823F0F00352
:1003600043EA00101060704704100240034A13680B
:1003700023F4701343EA8040106070470410024079
:1003800010B504460220FFF79DFF0220FFF774FF1F
:100390000020FFF7B9FF0220FFF77EFF17490B6827
:1003A00023F080730B600020FFF76EFF2078FFF7CB
:1003B000B5FF6078FFF7DAFF0B6843F080730B60DE
:1003C0000020FFF759FF207AFFF7C6FFA07AFFF75A
:1003D000AFFF607AFFF7B6FF606800F04FF80220C9
:1003E000FFF792FFFFF71CFF054BE2681A60054B11
:1003F00022691A60044B62691A6010BD0010024045
:10040000000000200400002008000020436901EAE9
:10041000030221EA030141EA0241816170472DE9AB
:10042000F0410568C46800264FF0030E43FA06F752
:10043000FF070FD577000EFA07FC6FEA0C0C01FAE4
:1004400007F80CEA05050CEA040402FA07F748EA83
:1004500005053C430136102EE8D10560C460BDE8B7
:10046000F081430903F1804303F5043300F01F02D8
:10047000196801209040084318607047034A1368C8
:1004800023F00F0318431060704700BF00200240A4
:10049000FEE7704738B51A4A1A4B1B498B421BD3EB
:1004A0001A4A002193421CD3194A1A4C13681A4D58
:1004B00043F400731360536F43F470035367AC420B
:1004C00012D3164C164DAC4212D3FFF75BFE154CFF
:1004D000154DAC4210D338BD52F8040B43F8040B51
:1004E000DCE743F8041BDDE754F8043B9847E6E7F4
:1004F00054F8043B9847E6E754F8043B9847E8E78C
:10050000B0050008000000200C00002010000020B2
:1005100014ED00E0B0050008B0050008B0050008C3
:10052000B0050008B0050008B0050008024B20F037
:100530007F401860704700BF14E000E0044A136871
:1005400000F0040023F0040303431360704700BF6E
:1005500010E000E0024A136843F0020313607047A2
:1005600010E000E0024A136843F001031360704793
:1005700010E000E0014B00221A60704718E000E034
:10058000000A00000100000000040000006CDC0212
:1005900000366E01006CDC02000E0000020000005C
:1005A000000400000090D0030048E8010090D00350
:0C05B00000127A0000127A0000127A009B
:040000050800049556
:00000001FF
