:020000040800F2
:10000000003000201907000817070008150700082E
:100010001507000815070008150700080000000074
:1000200000000000000000000000000017070008AA
:100030001707000800000000170700082D0300083C
:100040001507000815070008150700081507000820
:100050001507000815070008150700081507000810
:100060001507000815070008150700081507000800
:1000700015070008150700081507000815070008F0
:1000800015070008150700081507000815070008E0
:1000900015070008150700081507000815070008D0
:1000A00015070008150700081507000815070008C0
:1000B00015070008150700081507000815070008B0
:1000C00015070008150700081507000815070008A0
:1000D0001507000815070008150700081507000890
:1000E0001507000815070008150700081507000880
:1000F0001507000815070008150700081507000870
:10010000150700081507000815070008150700085F
:10011000150700081507000815070008150700084F
:10012000150700081507000815070008150700083F
:10013000150700081507000815070008150700082F
:10014000150700081507000815070008150700081F
:10015000150700081507000815070008150700080F
:1001600015070008150700081507000815070008FF
:1001700015070008150700081507000815070008EF
:100180001507000808B500F027F94FF480514FF02B
:10019000904000F02FFA4FF4FA6000F0CFF800F032
:1001A00023F94FF480514FF0904000F025FA4FF4BE
:1001B000FA6000F0C3F808BD10B52A4A136843F08E
:1001C00000731360284C236843F000732360012000
:1001D00000F0B4F8236823F000732360012000F0DE
:1001E000ADF8224B1A6842F001021A601A6822F038
:1001F00002021A60012000F0A1F81D4B1B6813F0E9
:10020000010F26D000243CBB184B1A6822F0BC0218
:100210001A601A6842F040021A60164A116821F00A
:1002200040411160116841F08001116012490A6873
:1002300022F001020A601A6822F001021A606420AA
:1002400000F07CF80A4B1B6813F0010F07D1204621
:1002500010BD4FF0FF34D6E74FF0FF34F7E74FF013
:10026000FF34F4E71C10024010100240006400400C
:10027000046400401C6400400066004010B500F0BB
:10028000B3F84FF480514FF0904000F0B5F96FF0A3
:100290007F44013C07D04FF400614FF0904000F0E4
:1002A000AEF90028F5D14FF480514FF0904000F0A6
:1002B000A1F9013C07D04FF400614FF0904000F0ED
:1002C0009EF90028F5D0002C00DC10BD00F084F869
:1002D000322000F033F800F087F8F6E710B500F0B0
:1002E00011F800F03FF800F07FF8FFF765FF30B13C
:1002F0006424204600F022F8FFF7C0FFF9E74FF42E
:100300007A74F6E708B5084800F02EF9042000F0EA
:1003100057FA4FF6FF1000F04BFA00F06DFA00F0BC
:1003200063FA00F059FA08BD1C080008024A136875
:1003300001331360704700BF0C0000204FF47A7344
:1003400003FB00F0054BA3FB0023054A106800EBFC
:100350009310034B1B688342FBD37047D34D62104D
:100360000C00002008B540F2912000F0BBF94FF4DA
:100370008073002201214FF0904000F04CF94FF4BF
:100380000063012200214FF0904000F044F94FF447
:10039000006209214FF0904000F07AF94FF4805349
:1003A000002201214FF0904000F035F94FF48053C6
:1003B000022200214FF0904000F04FF94FF480519D
:1003C0004FF0904000F016F94FF4805209214FF0A1
:1003D000904000F05DF908BD08B54FF480714FF012
:1003E000904000F007F908BD08B54FF480714FF058
:1003F000904000F001F908BD08B54FF480714FF04E
:10040000904000F0FFF808BD034A1368C3F381036E
:10041000022BFAD1704700BF04100240042817D8FD
:10042000DFE800F003080D1214000A4B1868C0F34F
:1004300040607047074B1868C0F340407047054B59
:100440001868C0F340007047034BF9E7034BF7E728
:10045000002070470010024020100240241002408B
:1004600008B502461046FFF7D9FF0028FAD008BDAC
:1004700008B502461046FFF7D1FF0028FAD108BDA3
:10048000012806D1084A1368C3F38103012BFAD16E
:10049000704738B1022804D1034A136813F00C0FD7
:1004A000FBD17047FFF7B0BF04100240042809D801
:1004B000DFE800F003090E1315000A4A136843F041
:1004C000807313607047074A136843F48033F8E77A
:1004D000044A136843F00103F3E7034AF9E7034AC8
:1004E000F7E700BF00100240201002402410024035
:1004F000034A136823F0030318431060704700BFDA
:1005000004100240034A136823F4803343EA004096
:100510001060704704100240034A136823F46053CC
:1005200043EAC0201060704704100240034A136879
:1005300023F4E06343EA0020106070470410024097
:10054000034A136823F0F00343EA00101060704779
:1005500004100240034A136823F4701343EA8040F6
:10056000106070470410024010B504460220FFF7E7
:100570009DFF0220FFF774FF0020FFF7B9FF022064
:10058000FFF77EFF17490B6823F080730B60002094
:10059000FFF76EFF2078FFF7B5FF6078FFF7DAFF0F
:1005A0000B6843F080730B600020FFF759FF207A3F
:1005B000FFF7C6FFA07AFFF7AFFF607AFFF7B6FF3D
:1005C000606800F09DF80220FFF792FFFFF71CFF24
:1005D000054BE2681A60054B22691A60044B626998
:1005E0001A6010BD0010024000000020040000202E
:1005F000080000208161704709048161704700692B
:1006000008407047436901EA030221EA030141EA15
:100610000241816170472DE9F0410568C4680026F8
:100620004FF0030E43FA06F7FF070FD577000EFAD7
:1006300007FC6FEA0C0C01FA07F80CEA05050CEA56
:10064000040402FA07F748EA05053C430136102E78
:10065000E8D10560C460BDE8F081012941680CBFA4
:1006600019439943F0B5416081680024032643FA99
:1006700004F5ED0707D5650006FA05F721EA07013D
:1006800002FA05F529430134102CF0D18160F0BD48
:10069000F0B5076A466A00234FF00F0C42FA03F4E4
:1006A000E50707D59D000CFA05F427EA040701FACF
:1006B00005F52F430133082BF0D14FF00F0C42FA10
:1006C00003F4E40708D59C00203C0CFA04F526EA64
:1006D000050601FA04F426430133102BEFD107621B
:1006E0004662F0BD430903F1804303F5043300F093
:1006F0001F021968012090400843186070470000ED
:10070000034A136823F00F0318431060704700BFBB
:1007100000200240FEE7704738B51A4A1A4B1B49C1
:100720008B421BD31A4A002193421CD3194A1A4CFC
:1007300013681A4D43F400731360536F43F470034E
:100740005367AC4212D3164C164DAC4212D3FFF78E
:10075000C5FD154C154DAC4210D338BD52F8040BF5
:1007600043F8040BDCE743F8041BDDE754F8043BD3
:100770009847E6E754F8043B9847E6E754F8043B0B
:100780009847E8E734080008000000200C0000202B
:100790001000002014ED00E03408000834080008C0
:1007A0003408000834080008340800083408000839
:1007B000024B20F07F401860704700BF14E000E05B
:1007C000044A136800F0040023F004030343136099
:1007D000704700BF10E000E0024A136843F00203D4
:1007E0001360704710E000E0024A136843F0010311
:1007F0001360704710E000E0014B00221A60704760
:1008000018E000E0000A0000010000000004000001
:10081000006CDC0200366E01006CDC02000E000091
:1008200002000000000400000090D0030048E8012E
:040830000090D00361
:0C08340000127A0000127A0000127A0014
:0400000508000719CF
:00000001FF
